:020000040800F2
:1000000000C00020D5170008251400082714000898
:10001000291400082B1400082D140008000000000B
:100020000000000000000000000000002F14000885
:1000300031140008000000003314000835140008D3
:100040001D1800081D1800081D1800081D180008BC
:100050001D1800081D1800081D1800081D180008AC
:100060001D1800081D1800081D1800081D1800089C
:100070001D1800081D1800081D1800081D1800088C
:100080001D1800081D1800081D1800081D1800087C
:100090001D1800081D1800081D1800081D1800086C
:1000A0001D1800081D1800081D1800081D1800085C
:1000B0003D1400081D1800084D1400081D18000804
:1000C0001D1800081D1800081D1800081D1800083C
:1000D0001D1800081D1800081D1800081D1800082C
:1000E0001D1800081D1800081D1800081D1800081C
:1000F0001D1800081D1800081D1800081D1800080C
:100100001D1800081D1800085D1400081D180008BF
:100110001D1800081D1800081D1800081D180008EB
:100120001D1800081D1800081D1800081D180008DB
:1001300000000000000000000000000000000000BF
:1001400000000000000000000000000000000000AF
:10015000000000000000000000000000000000009F
:10016000000000000000000000000000000000008F
:10017000000000000000000000000000000000007F
:10018000000000000000000000000000000000006F
:10019000000000000000000000000000000000005F
:1001A000000000000000000000000000000000004F
:1001B000000000000000000000000000000000003F
:1001C000000000000000000000000000000000002F
:1001D000000000000000000000000000000000001F
:0401E0005FF8E0F1F3
:1001E80010B5054C237833B9044B13B10448AFF369
:1001F80000800123237010BD3C0400200000000093
:100208002433000808B5034B1BB103490348AFF377
:10021800008008BD000000004004002024330008CE
:1002280081F0004102E000BF83F0004330B54FEA9F
:1002380041044FEA430594EA050F08BF90EA020F0C
:100248001FBF54EA000C55EA020C7FEA645C7FEA9F
:10025800655C00F0E2804FEA5454D4EB5555B8BFC2
:100268006D420CDD2C4480EA020281EA030382EA33
:10027800000083EA010180EA020281EA0303362DC5
:1002880088BF30BD11F0004F4FEA01314FF4801C98
:100298004CEA113102D0404261EB410113F0004FAA
:1002A8004FEA03334CEA133302D0524263EB430361
:1002B80094EA050F00F0A780A4F10104D5F1200EFF
:1002C8000DDB02FA0EFC22FA05F2801841F100015A
:1002D80003FA0EF2801843FA05F359410EE0A5F12E
:1002E80020050EF1200E012A03FA0EFC28BF4CF05F
:1002F800020C43FA05F3C01851EBE37101F0004515
:1003080007D54FF0000EDCF1000C7EEB00006EEB21
:100318000101B1F5801F1BD3B1F5001F0CD34908AB
:100328005FEA30004FEA3C0C04F101044FEA445202
:1003380012F5800F80F09A80BCF1004F08BF5FEA89
:10034800500C50F1000041EB045141EA050130BD69
:100358005FEA4C0C404141EB0101013C28BFB1F57B
:10036800801FE9D291F0000F04BF01460020B1FAC6
:1003780081F308BF2033A3F10B03B3F120020CDA99
:100388000C3208DD02F1140CC2F10C0201FA0CF077
:1003980021FA02F10CE002F11402D8BFC2F1200CDC
:1003A80001FA02F120FA0CFCDCBF41EA0C01904092
:1003B800E41AA2BF01EB0451294330BD6FEA0404DB
:1003C8001F3C1CDA0C340EDC04F11404C4F12002C6
:1003D80020FA04F001FA02F340EA030021FA04F3D8
:1003E80045EA030130BDC4F10C04C4F1200220FA2F
:1003F80002F001FA04F340EA0300294630BD21FA6D
:1004080004F0294630BD94F0000F83F4801306BF32
:1004180081F480110134013D4EE77FEA645C18BF26
:100428007FEA655C29D094EA050F08BF90EA020FBD
:1004380005D054EA000C04BF1946104630BD91EAB5
:10044800030F1EBF0021002030BD5FEA545C05D1B8
:100458004000494128BF41F0004130BD14F58004F7
:100468003CBF01F5801130BD01F0004545F0FE416B
:1004780041F470014FF0000030BD7FEA645C1ABFA0
:10048800194610467FEA655C1CBF0B46024650EAD7
:10049800013406BF52EA033591EA030F41F4002103
:1004A80030BD00BF90F0000F04BF0021704730B589
:1004B8004FF4806404F132044FF000054FF000015E
:1004C80050E700BF90F0000F04BF0021704730B51F
:1004D8004FF4806404F1320410F0004548BF4042F4
:1004E8004FF000013EE700BF42004FEAE2014FEA49
:1004F80031014FEA02701FBF12F07F4393F07F4F24
:1005080081F06051704732F07F4208BF704793F026
:100518007F4F04BF41F40021704730B54FF4607439
:1005280001F0004521F000411CE700BF50EA01023C
:1005380008BF704730B54FF000050AE050EA0102E5
:1005480008BF704730B511F0004502D5404261EB55
:1005580041014FF4806404F132045FEA915C3FF496
:10056800D8AE4FF003025FEADC0C18BF03325FEA33
:10057800DC0C18BF033202EBDC02C2F1200300FAE4
:1005880003FC20FA02F001FA03FE40EA0E0021FA09
:1005980002F11444BDE600BF70B54FF0FF0C4CF4F7
:1005A800E06C1CEA11541DBF1CEA135594EA0C0FA9
:1005B80095EA0C0F00F0DEF82C4481EA030621EAE4
:1005C8004C5123EA4C5350EA013518BF52EA03351F
:1005D80041F4801143F4801338D0A0FB02CE4FF0D1
:1005E8000005E1FB02E506F00042E0FB03E54FF001
:1005F8000006E1FB03569CF0000F18BF4EF0010EF9
:10060800A4F1FF04B6F5007F64F5407404D25FEAF4
:100618004E0E6D4146EB060642EAC62141EA5551A7
:100628004FEAC52040EA5E504FEACE2EB4F1FD0CE9
:1006380088BFBCF5E06F1ED8BEF1004F08BF5FEA67
:10064800500E50F1000041EB045170BD06F0004619
:1006580046EA010140EA020081EA0301B4EB5C04C6
:10066800C2BFD4EB0C0541EA045170BD41F48011BE
:100678004FF0000E013C00F3AB8014F1360FDEBFE3
:10068800002001F0004170BDC4F10004203C35DABF
:100698000C341BDC04F11404C4F1200500FA05F342
:1006A80020FA04F001FA05F240EA020001F00042E3
:1006B80021F0004110EBD37021FA04F642EB060159
:1006C8005EEA430E08BF20EAD37070BDC4F10C0483
:1006D800C4F1200500FA04F320FA05F001FA04F247
:1006E80040EA020001F0004110EBD37041F1000133
:1006F8005EEA430E08BF20EAD37070BDC4F120053E
:1007080000FA05F24EEA020E20FA04F301FA05F2A5
:1007180043EA020321FA04F001F0004121FA04F24D
:1007280020EA020000EBD3705EEA430E08BF20EA1D
:10073800D37070BD94F0000F0FD101F00046400057
:1007480041EB010111F4801F08BF013CF7D041EAD9
:10075800060195F0000F18BF704703F000465200DD
:1007680043EB030313F4801F08BF013DF7D043EAAE
:100778000603704794EA0C0F0CEA135518BF95EA64
:100788000C0F0CD050EA410618BF52EA4306D1D1EB
:1007980081EA030101F000414FF0000070BD50EA0A
:1007A800410606BF1046194652EA430619D094EA94
:1007B8000C0F02D150EA013613D195EA0C0F05D17E
:1007C80052EA03361CBF104619460AD181EA0301D2
:1007D80001F0004141F0FE4141F470014FF000008A
:1007E80070BD41F0FE4141F4780170BD70B54FF025
:1007F800FF0C4CF4E06C1CEA11541DBF1CEA1355A5
:1008080094EA0C0F95EA0C0F00F0A7F8A4EB050486
:1008180081EA030E52EA03354FEA013100F088807D
:100828004FEA03334FF0805545EA131343EA126346
:100838004FEA022245EA111545EA10654FEA0026FB
:100848000EF000419D4208BF964244F1FD0404F5B4
:10085800407402D25B084FEA3202B61A65EB030510
:100868005B084FEA32024FF480104FF4002CB6EBCD
:10087800020E75EB030E22BFB61A754640EA0C004D
:100888005B084FEA3202B6EB020E75EB030E22BF8D
:10089800B61A754640EA5C005B084FEA3202B6EBCE
:1008A800020E75EB030E22BFB61A754640EA9C008D
:1008B8005B084FEA3202B6EB020E75EB030E22BF5D
:1008C800B61A754640EADC0055EA060E18D04FEA1B
:1008D800051545EA16754FEA06164FEAC30343EABB
:1008E80052734FEAC2025FEA1C1CC0D111F4801F88
:1008F8000BD141EA00014FF000004FF0004CB6E781
:1009080011F4801F04BF01430020B4F1FD0C88BF1F
:10091800BCF5E06F3FF6AFAEB5EB030C04BFB6EB2A
:10092800020C5FEA500C50F1000041EB045170BD1D
:100938000EF0004E4EEA113114EB5C04C2BFD4EB4A
:100948000C0541EA045170BD41F480114FF0000ECE
:10095800013C90E645EA060E8DE60CEA135594EA4A
:100968000C0F08BF95EA0C0F3FF43BAF94EA0C0F4D
:100978000AD150EA01347FF434AF95EA0C0F7FF4C2
:1009880025AF104619462CE795EA0C0F06D152EA16
:1009980003353FF4FDAE1046194622E750EA4106FA
:1009A80018BF52EA43067FF4C5AE50EA41047FF40B
:1009B8000DAF52EA43057FF4EBAE12E74FEA41026E
:1009C80012F5001215D211D56FF47873B3EB625299
:1009D80012D94FEAC12343F0004343EA505311F0C0
:1009E800004F23FA02F018BF404270474FF0000052
:1009F800704750EA013005D111F0004008BF6FF090
:100A0800004070474FF00000704700BF4FEA4102B6
:100A1800B2F1E04324BFB3F5001CDCF1FE5C0DD954
:100A280001F0004C4FEAC0024CEA5070B2F1004F9E
:100A380040EB830008BF20F00100704711F0804FA1
:100A480021D113F13872BCBF01F00040704741F466
:100A580080114FEA5252C2F11802C2F1200C10FA6A
:100A68000CF320FA02F018BF40F001004FEAC1234E
:100A78004FEAD32303FA0CFC40EA0C0023FA02F3F2
:100A88004FEA4303CCE77FEA625307D150EA0133C8
:100A98001EBF4FF0FE4040F44000704701F0004098
:100AA80040F0FE4040F40000704700BF80F0004076
:100AB80002E000BF81F0004142001FBF5FEA41032E
:100AC80092EA030F7FEA226C7FEA236C6AD04FEA2E
:100AD8001262D2EB1363C1BFD21841404840414073
:100AE800B8BF5B42192B88BF704710F0004F40F425
:100AF800000020F07F4018BF404211F0004F41F441
:100B0800000121F07F4118BF494292EA030F3FD00C
:100B1800A2F1010241FA03FC10EB0C00C3F120031F
:100B280001FA03F100F0004302D5494260EB4000AE
:100B3800B0F5000F13D3B0F1807F06D340084FEA19
:100B4800310102F10102FE2A51D2B1F1004F40EB0E
:100B5800C25008BF20F0010040EA03007047490076
:100B680040EB0000013A28BFB0F5000FEDD2B0FA13
:100B780080FCACF1080CB2EB0C0200FA0CF0AABF36
:100B880000EBC25052421843BCBFD04018437047D4
:100B980092F0000F81F4000106BF80F400000132DA
:100BA800013BB5E74FEA41037FEA226C18BF7FEAB1
:100BB800236C21D092EA030F04D092F0000F08BFF3
:100BC8000846704790EA010F1CBF0020704712F0DA
:100BD8007F4F04D1400028BF40F00040704712F119
:100BE80000723CBF00F50000704700F0004343F07E
:100BF800FE4040F4000070477FEA226216BF0846B4
:100C08007FEA23630146420206BF5FEA412390EA76
:100C1800010F40F4800070474FF0000304E000BF6C
:100C280010F0004348BF40425FEA000C08BF70471D
:100C380043F0964301464FF000001CE050EA0102E1
:100C480008BF70474FF000030AE000BF50EA0102F6
:100C580008BF704711F0004302D5404261EB4101E3
:100C68005FEA010C02BF84460146002043F0B64308
:100C780008BFA3F18053A3F50003BCFA8CF2083A2D
:100C8800A3EBC25310DB01FA02FC634400FA02FC36
:100C9800C2F12002BCF1004F20FA02F243EB02003D
:100CA80008BF20F00100704702F1200201FA02FC9F
:100CB800C2F1200250EA4C0021FA02F243EB020092
:100CC80008BF20EADC7070474FF0FF0C1CEAD052D6
:100CD8001EBF1CEAD15392EA0C0F93EA0C0F6FD097
:100CE8001A4480EA010C400218BF5FEA41211ED075
:100CF8004FF0006343EA501043EA5111A0FB013161
:100D08000CF00040B1F5000F3EBF490041EAD37135
:100D18005B0040EA010062F17F02FD2A1DD8B3F1B1
:100D2800004F40EBC25008BF20F00100704790F020
:100D3800000F0CF0004C08BF49024CEA502040EA72
:100D480051207F3AC2BFD2F1FF0340EAC250704738
:100D580040F400004FF00003013A5DDC12F1190F76
:100D6800DCBF00F000407047C2F10002410021FAE8
:100D780002F1C2F1200200FA02FC5FEA310040F100
:100D8800000053EA4C0308BF20EADC70704792F079
:100D9800000F00F0004C02BF400010F4000F013AB1
:100DA800F9D040EA0C0093F0000F01F0004C02BFAC
:100DB800490011F4000F013BF9D041EA0C018FE71B
:100DC8000CEAD15392EA0C0F18BF93EA0C0F0AD021
:100DD80030F0004C18BF31F0004CD8D180EA010047
:100DE80000F00040704790F0000F17BF90F0004FE0
:100DF800084691F0000F91F0004F14D092EA0C0FC2
:100E080001D142020FD193EA0C0F03D14B0218BF54
:100E1800084608D180EA010000F0004040F0FE409A
:100E280040F40000704740F0FE4040F44000704736
:100E38004FF0FF0C1CEAD0521EBF1CEAD15392EAB5
:100E48000C0F93EA0C0F69D0A2EB030280EA010CA5
:100E580049024FEA402037D04FF0805343EA11113E
:100E680043EA10130CF000408B4238BF5B0042F19C
:100E78007D024FF4000C8B4224BF5B1A40EA0C0041
:100E8800B3EB510F24BFA3EB510340EA5C00B3EB73
:100E9800910F24BFA3EB910340EA9C00B3EBD10F61
:100EA80024BFA3EBD10340EADC001B0118BF5FEAB3
:100EB8001C1CE0D1FD2A3FF650AF8B4240EBC250DC
:100EC80008BF20F0010070470CF0004C4CEA50209D
:100ED8007F32C2BFD2F1FF0340EAC250704740F4EC
:100EE80000004FF00003013A37E792F0000F00F0DE
:100EF800004C02BF400010F4000F013AF9D040EA5C
:100F08000C0093F0000F01F0004C02BF490011F4EF
:100F1800000F013BF9D041EA0C0195E70CEAD153E7
:100F280092EA0C0F08D142027FF47DAF93EA0C0FCE
:100F38007FF470AF084676E793EA0C0F04D14B02B2
:100F48003FF44CAF08466EE730F0004C18BF31F064
:100F5800004CCAD130F000427FF45CAF31F000435E
:100F68007FF43CAF5FE700BF4FF0FF3C06E000BFF7
:100F78004FF0010C02E000BF4FF0010C4DF804CD1A
:100F88004FEA40024FEA41037FEA226C18BF7FEA2A
:100F9800236C11D001B052EA530C18BF90EA010F2C
:100FA80058BFB2EB030088BFC81738BF6FEAE170BB
:100FB80018BF40F0010070477FEA226C02D15FEA57
:100FC800402C05D17FEA236CE4D15FEA412CE1D0C3
:100FD8005DF8040B704700BF844608466146FFE78A
:100FE8000FB5FFF7C9FF002848BF10F1000F0FBD6C
:100FF8004DF808EDFFF7F4FF0CBF012000205DF865
:1010080008FB00BF4DF808EDFFF7EAFF34BF0120E9
:1010180000205DF808FB00BF4DF808EDFFF7E0FF82
:1010280094BF012000205DF808FB00BF4DF808EDD3
:10103800FFF7D2FF94BF012000205DF808FB00BF36
:101048004DF808EDFFF7C8FF34BF012000205DF818
:1010580008FB00BF42000ED2B2F1FE4F0BD34FF097
:101068009E03B3EB126209D44FEA002343F0004316
:1010780023FA02F070474FF00000704712F1610F39
:1010880001D1420202D14FF0FF3070474FF000000B
:10109800704700BF30B589B00024049405940694C5
:1010A8000794214B9A6942F010029A619A6902F0FA
:1010B80010020092009A9A6942F020029A619A6995
:1010C80002F020020192019A9A6942F004029A61A0
:1010D8009A6902F004020292029A9A6942F008029E
:1010E8009A619B6903F008030393039B0F4D224603
:1010F8004FF47071284600F079FD1F23049305947E
:10110800069404A9284600F051FC4FF47073049328
:101118000123059306940223079304A9284600F0A7
:1011280045FC09B030BD00BF00100240001001406E
:1011380008B50B480B4B03600B4B436000238360DF
:10114800C3604FF48042026143618361C3610362FB
:1011580000F052FD00B908BD00F0B6F8FBE700BF8B
:101168005804002000580040A086010010B586B041
:10117800002302930393049305930268114B9A4248
:1011880001D006B010BD104CA36943F00803A36159
:10119800A36903F008030093009B4FF44063029394
:1011A800122303930323059302A9084800F0FEFBCA
:1011B800E36943F48003E361E36903F48003019383
:1011C800019BDEE70058004000100240000C01407F
:1011D800F8B52E4B834200D0F8BD2D4A1368013371
:1011E80013602C4981FB0321DA17C2EBA10202EB41
:1011F8008202B3EB420F20D0254B1B68142BEBD196
:10120800254C264E264B1A682168304601F0DCFE34
:10121800244D254B1A682168284601F0D5FE234B3A
:101228001C68F069FFF716FF6063E869FFF712FFB3
:10123800A063174B00221A60CEE71D4D286801F005
:101248008BFE28601B4C206801F08CFE206001F0AA
:1012580045FE00B2184F386001F048FE00B2174E44
:101268003060386801F04CFE154B1860306801F0AA
:1012780047FE144B1860286801F07EFE084B186082
:10128800206801F079FE084B1860B5E7F0050020EA
:10129800AC0400206766666600000020C8040020D1
:1012A800C0040020EC040020C404002060050020D5
:1012B800B8040020BC040020B0040020B4040020BE
:1012C800100500201405002072B6FEE700B591B0A5
:1012D8002822002106A801F05FFF00230193029352
:1012E800039304930593012206924FF480330793E6
:1012F8000A9202220D920E934FF4E0130F9306A860
:1013080000F06EFD80B90F230193022102910023A2
:1013180003934FF480620492059301A800F092FFB2
:1013280020B911B05DF804FBFFF7CEFFFFF7CCFF43
:1013380080B582B01F4B204A1A6000F093FAFFF77D
:10134800C5FFFFF7A7FE00F0E1F9FFF7F1FE00F097
:101358008BF800F0BBF800F0EBF801F0A3FD174C98
:10136800204601F0FDF80021204601F06DFC042123
:10137800204601F069FC4FF080450024104F01978A
:10138800104E00962B4622460F49104801F014FED5
:10139800019700962B4622460D490E4801F00CFE97
:1013A80041F28831084601F06FFD642000F07EFAB2
:1013B800FBE700BF0000002000007043600500202C
:1013C8000000E1450000FA4500004343C80400203E
:1013D80000803743EC04002082B00E4B9A6942F03B
:1013E80001029A619A6902F001020092009ADA6990
:1013F80042F08052DA61DB6903F080530193019B6C
:10140800054A536823F0E06343F00073536002B069
:10141800704700BF0010024000000140FEE7FEE7F1
:10142800FEE7FEE7FEE770477047704708B500F033
:101438002BFA08BD08B5024801F009F908BD00BF3C
:101448001805002008B5024801F001F908BD00BFE1
:10145800A805002008B5024801F0F9F808BD00BF4A
:10146800F00500207047000000B58DB0242200214F
:1014780003A801F091FE00230193029312484FF054
:1014880080420260436083604FF6FF72C26003616E
:1014980083610323039301230593099303A901F0AF
:1014A80037FA50B900230193029301A9064801F0C5
:1014B800ABFC28B90DB05DF804FBFFF705FFF1E7B9
:1014C800FFF702FFF6E700BF1805002000B58DB052
:1014D8002422002103A801F05FFE00230193029358
:1014E8001148124A0260436083604FF6FF72C2607F
:1014F800036183610323039301230593099303A9DC
:1015080001F006FA50B900230193029301A9064895
:1015180001F07AFC28B90DB05DF804FBFFF7D4FEA2
:10152800F1E7FFF7D1FEF6E7A80500200008004024
:1015380000B587B0002302930393049305930093A7
:1015480001931548154A026047224260836040F2C1
:10155800E732C26003618023836101F081F990B9A9
:101568004FF48053029302A90B4801F0DFFA68B9DF
:101578000023009301936946074801F045FC40B9F0
:1015880007B05DF804FBFFF79FFEE9E7FFF79CFE55
:10159800EEE7FFF799FEF3E7F0050020000C0040A6
:1015A80000B589B000230493059306930793036855
:1015B800B3F1804F05D0254A934225D009B05DF894
:1015C80004FB03F50433DA6942F00102DA61DA69EF
:1015D80002F001020092009A9A6942F004029A61AC
:1015E8009B6903F004030193019B0323049304A95B
:1015F800174800F0DBF9002211461C2000F07CF9A6
:101608001C2000F0B1F9D9E7124BDA6942F0040264
:10161800DA61DA6902F004020292029A9A6942F0E7
:1016280008029A619B6903F008030393039BC02394
:10163800049304A9084800F0B9F9002211461E20B5
:1016480000F05AF91E2000F08FF9B7E700080040B3
:101658000008014000100240000C014000B583B0B2
:101668000368134A934205D0124A93420DD003B03F
:101678005DF804FB104BDA6942F00202DA61DB69BB
:1016880003F002030093009BF1E70B4BDA6942F089
:101698000802DA61DB6903F008030193019B002269
:1016A8000121322000F028F9322000F05DF9DEE750
:1016B80000040040000C00400010024000B587B054
:1016C8000023029303930493059302680D4B9A42F7
:1016D80002D007B05DF804FB03F503339A6942F0C2
:1016E80004029A619B6903F004030193019BC023E0
:1016F800029302230393059302A9034800F056F9C5
:10170800E7E700BF000400400008014000B58FB0C3
:1017180000230A930B930C930D9308930993019359
:101728000293039304930593069307932548264A47
:1017380002604360836041F61F42C26003618361B7
:1017480001F08EF858BB4FF480530A930AA91D483C
:1017580001F0ECF930BB1B4801F0AEF828BB0023C0
:101768000893099308A9174801F04EFB00BB6023B2
:101778000193002202920392059201A9114801F0F7
:101788005BF9C0B904220DEB02010E4801F054F9CF
:10179800A0B90C48FFF792FF0FB05DF804FBFFF704
:1017A80093FDD0E7FFF790FDD5E7FFF78DFDD6E76E
:1017B800FFF78AFDDBE7FFF787FDE3E7FFF784FD27
:1017C800E7E700BF6005002000040040FFF74AFE7D
:1017D8000B480C490C4A002302E0D458C450043387
:1017E800C4188C42F9D3094A094C002301E013605C
:1017F8000432A242FBD301F0ABFCFFF799FD70471E
:10180800000000203C040020783300083C0400203D
:1018180040060020FEE7000010B504460E4B18787D
:101828004FF47A73B3FBF0F30C4A1068B0FBF3F093
:1018380000F0A8F868B90F2C01D901200AE00022AD
:1018480021464FF0FF3000F057F8054B1C60002090
:1018580000E0012010BD00BF0800002004000020A7
:101868000C00002008B5074A136843F01003136002
:10187800032000F02FF80F20FFF7CEFFFFF7ACFD95
:10188800002008BD00200240034A1168034B1B7862
:101898000B441360704700BF380600200800002082
:1018A800014B1868704700BF3806002038B5044659
:1018B800FFF7F6FF0546B4F1FF3F02D0044B1B7853
:1018C8001C44FFF7EDFF401BA042FAD338BD00BF10
:1018D80008000020074AD36823F4E0631B041B0CAC
:1018E800000200F4E060034343F0BF6343F40033B5
:1018F800D360704700ED00E000B5194BDB68C3F317
:101908000223C3F1070CBCF1040F28BF4FF0040CED
:1019180003F1040EBEF1060F18D9033B4FF0FF3E4A
:101928000EFA0CFC21EA0C0199400EFA03F322EAA4
:101938000303194300280BDB0901C9B200F1604019
:1019480000F5614080F800135DF804FB0023E5E72B
:1019580000F00F000901C9B2024B1954F4E700BFA7
:1019680000ED00E014ED00E0002807DB00F01F02A6
:10197800400901239340024A42F82030704700BFD3
:1019880000E100E00138B0F1807F0BD24FF0E02396
:101998005861054AF02182F8231000209861072237
:1019A8001A6170470120704700ED00E070B582B001
:1019B8000024A446B0E0874DAA4210D007D9864D2E
:1019C800AA420CD005F58035AA4208D013E0A5F547
:1019D8008015AA4203D005F57025AA4207D18A6866
:1019E800002A62D0012A5BD04361082403E0A5F5F0
:1019F8008015AA42F3D0BEF1FF0F58D80646BEF1B3
:101A0800FF0F56D84FEA8C0233680F25954023EA1A
:101A1800050304FA02F2134333604B6813F0805F46
:101A280078D06E4B9A6942F001029A619B6903F083
:101A380001030193019B4FEA9C02951C684B53F8E4
:101A480025600CF003039D000F23AB4026EA030634
:101A5800644B984233D003F58063984200F0988035
:101A680003F58063984200F0958003F580639842FF
:101A780000F0928003F58063984200F08F8003F5B0
:101A88008063984219D006231AE0CC68B3E7CC6883
:101A98000434B0E7CC680834ADE7CC680C34AAE766
:101AA80003610824A7E70024A5E70424A3E7061D8B
:101AB800A5E7ACF108029200A6E7052300E00023A1
:101AC800AB4033430232464D45F822304B6813F49D
:101AD800801F65D0444A936843EA0E0393604B68BD
:101AE80013F4001F62D0404AD36843EA0E03D36060
:101AF8004B6813F4003F5FD03B4A536843EA0E0338
:101B080053604B6813F4803F5CD0374A136843EA4C
:101B18000E0313600CF1010C0A6832FA0CF357D06B
:101B2800012303FA0CF302EA030E33EA0202F1D1AD
:101B38004A68122A3FF63FAF122A3FF65CAF01A56A
:101B480055F822F0E7190008931A00089D1A0008B2
:101B5800AF1A0008FF190008FF190008FF1900084C
:101B6800FF190008FF190008FF190008FF190008ED
:101B7800FF190008FF190008FF190008FF190008DD
:101B8800FF190008FF190008971A0008A31A00088F
:101B9800012395E7022393E7032391E704238FE7C3
:101BA800114A936823EA0E03936098E70E4AD368B4
:101BB80023EA0E03D3609BE70B4A536823EA0E031C
:101BC80053609EE7084A136823EA0E031360A1E7EF
:101BD80002B070BD00002210000031100010024059
:101BE8000000014000080140000401400AB1016101
:101BF8007047090401617047002800F0CC8070B577
:101C0800044690F83D30002B77D0242384F83D30EB
:101C18002268136823F0010313602268136843F4F1
:101C2800004313602268136823F40043136000F034
:101C3800C5FB62685A4B9A4264D85A4B98428CBF8B
:101C480000230123002B40F0A8805749A1FB003155
:101C58008B0C25686A6822F03F0242EA91426A606A
:101C680021680A6A22F03F0266684D4DAE424FD89D
:101C7800013313430B622168CA6922F44F4222F0F0
:101C8800FF026668464B9E424CD8431E7600B3FB63
:101C9800F6F3013340F6FC70034278D0C3F30B032C
:101CA8001343CB6121680B6823F0C003E269206A03
:101CB800024313430B6021688B6823F4034323F02A
:101CC800FF032269E068024313438B602168CB68F5
:101CD80023F0FF036269A06902431343CB602268C3
:101CE800136843F00103136000202064202384F864
:101CF8003D30206384F83E0070BD80F83C30FFF72B
:101D080035FA82E7294B98428CBF0023012399E7D3
:101D18004FF4967505FB03F3254DA5FB03539B096B
:101D28000133A6E7A368BBB9451E06EB460CB5FB15
:101D3800FCF50135C5F30B05B5FA85F56D0945BB0D
:101D4800C3B9013806EB4603B0FBF3F30133C3F321
:101D58000B0343F40043A3E7451E06EB860C0CEB8C
:101D68008C0CB5FBFCF50135C5F30B05B5FA85F50B
:101D78006D09E4E7013806EB860303EB8303B0FB48
:101D8800F3F30133C3F30B0343F4404388E704231D
:101D980086E7012384E7012070470120ACE700BFF4
:101DA800A08601007F841E0083DE1B43FF083D00E0
:101DB800D34D621082B0084B1B68084AA2FB03236C
:101DC8005B0A00FB03F3019300BF019B5A1E0192BB
:101DD800002BF9D102B0704704000020D34D6210E7
:101DE800002800F0F18170B582B00446036813F052
:101DF800010F2CD0994B5B6803F00C03042B1DD00A
:101E0800964B5B6803F00C03082B12D06368B3F59C
:101E1800803F41D0002B55D103F1804303F50433B3
:101E28001A6822F480321A601A6822F480221A6032
:101E380037E08A4B5B6813F4803FE7D0874B1B6819
:101E480013F4003F03D06368002B00F0BF812368C0
:101E580013F0020F75D0814B5B6813F00C0F5FD045
:101E68007E4B5B6803F00C03082B54D02369002BCE
:101E780000F08A807A4B01221A60FFF711FD0546AF
:101E8800764B1B6813F0020F75D1FFF709FD401B55
:101E98000228F5D903209EE1704A136843F4803381
:101EA8001360636843B3FFF7FBFC05466B4B1B6885
:101EB80013F4003FCBD1FFF7F3FC401B6428F5D99E
:101EC800032088E1B3F5A02F09D0644B1A6822F4E7
:101ED80080321A601A6822F480221A60E1E703F15E
:101EE8008043A3F53C331A6842F480221A601A68CA
:101EF80042F480321A60D4E7FFF7D2FC0546574B0C
:101F08001B6813F4003FA2D0FFF7CAFC401B6428EB
:101F1800F5D903205FE1514B5B6813F4803FA5D1ED
:101F28004E4B1B6813F0020F03D02369012B40F0BE
:101F38004F814A4A136823F0F803616943EAC103F1
:101F48001360236813F0080F33D0A369002B5CD00B
:101F5800434B0122C3F88024FFF7A2FC05463F4B00
:101F68005B6A13F0020F21D1FFF79AFC401B02288D
:101F7800F5D903202FE1394A136823F0F803616982
:101F880043EAC1031360DCE7354B00221A60FFF710
:101F980087FC0546314B1B6813F0020FD1D0FFF7C1
:101FA8007FFC401B0228F5D9032014E10120FFF72C
:101FB80001FF236813F0040F00F09680274BDB69BC
:101FC80013F0805F34D1254BDA6942F08052DA6130
:101FD800DB6903F080530193019B0125214B1B68AA
:101FE80013F4807F26D0E368012B3DD0002B53D11A
:101FF80003F1804303F504331A6A22F001021A62DE
:102008001A6A22F004021A6233E0154B0022C3F860
:102018008024FFF745FC0546104B5B6A13F0020F5E
:10202800C7D0FFF73DFC401B0228F5D90320D2E0BA
:102038000025D3E70B4A136843F480731360FFF756
:102048002FFC0646074B1B6813F4807FCBD1FFF7A4
:1020580027FC801B6428F5D90320BCE0001002404F
:1020680000004242007000405F4A136A43F00103D7
:102078001362E36833B3FFF713FC06465A4B1B6A37
:1020880013F0020F2FD1FFF70BFC801B41F28833AE
:102098009842F3D903209EE0052B09D0524B1A6AC7
:1020A80022F001021A621A6A22F004021A62E0E7B8
:1020B8004D4B1A6A42F004021A621A6A42F001028F
:1020C8001A62D6E7FFF7ECFB0646474B1B6A13F08C
:1020D800020F08D0FFF7E4FB801B41F288339842D7
:1020E800F3D9032077E0E5B9E369002B72D03E4AC3
:1020F800526802F00C02082A56D0022B17D03B4B2C
:1021080000221A66FFF7CCFB0446374B1B6813F016
:10211800007F47D0FFF7C4FB001B0228F5D9032036
:1021280059E0314AD36923F08053D361DCE72F4B60
:1021380000221A66FFF7B4FB05462B4B1B6813F009
:10214800007F06D0FFF7ACFB401B0228F5D903201F
:1021580041E0236AB3F5803F1AD023494B6823F442
:102168007413226A606A024313434B601F4B0122B7
:102178001A66FFF795FB04461B4B1B6813F0007F9C
:102188000ED1FFF78DFB001B0228F5D9032022E0B2
:10219800154A536823F40033A1680B435360DCE706
:1021A800002018E0002016E0012B16D00E4B5B68CB
:1021B80003F48031226A914211D103F47013626AE8
:1021C80093420ED1002006E001207047012002E072
:1021D800012000E0002002B070BD0120FBE70120D3
:1021E800F9E70120F7E700BF001002400000424273
:1021F8000F4B5B6803F00C02082A01D00D487047AA
:10220800C3F383420C49885C13F4803F0BD0084B1E
:102218005B68C3F34043094AD35C064A02FB00F0FB
:10222800B0FBF3F07047064B03FB00F0704700BFAC
:102238000010024000127A0054330008643300088A
:1022480000093D00002800F0A08070B50D46044646
:10225800524B1B6803F007038B420BD24F4A13689B
:1022680023F007030B431360136803F007038B4243
:1022780040F08D80236813F0020F17D013F0040F7D
:1022880004D0474A536843F4E0635360236813F06B
:10229800080F04D0424A536843F460535360404ADD
:1022A800536823F0F003A1680B435360236813F0CD
:1022B800010F31D06368012B20D0022B25D0384A7A
:1022C800126812F0020F64D035494A6822F00302FE
:1022D80013434B60FFF7E4FA0646314B5B6803F0A3
:1022E8000C036268B3EB820F16D0FFF7D9FA801B94
:1022F80041F288339842F0D9032045E0284A126811
:1023080012F4003FE0D101203EE0254A126812F0A5
:10231800007FD9D1012037E0204B1B6803F0070369
:10232800AB420AD91D4A136823F007032B431360F5
:10233800136803F00703AB422DD1236813F0040F91
:1023480006D0174A536823F4E063E1680B435360EF
:10235800236813F0080F07D0114A536823F4605319
:10236800216943EAC1035360FFF742FF0C4B5B68E6
:10237800C3F303130B4AD35CD8400B4B18600B4BC9
:102388001868FFF749FA002070BD01207047012046
:10239800FAE70120F8E70120F6E700BF0020024035
:1023A800001002403C330008040000200C0000200C
:1023B800014B1868704700BF0400002008B5FFF7FC
:1023C800F7FF044B5B68C3F30223034AD35CD8408E
:1023D80008BD00BF001002404C33000830B4036A47
:1023E800026A22F0010202624268846924F07304DE
:1023F8000D682C4323F0020C8B6843EA0C03104D44
:10240800A84203D005F50065A84205D123F00803CA
:10241800CD682B4323F00403094DA84203D005F5EA
:102428000065A84205D122F440724D692A438D699E
:102438002A43426084614A684263036230BC704741
:10244800002C014030B4036A026A22F480720262EE
:102458004268C46924F0730C0C6844EA0C0523F440
:1024680000738C6843EA0423114CA04203D004F59E
:102478000064A04206D123F40063CC6843EA042335
:1024880023F480630A4CA04203D004F50064A04200
:1024980007D122F440524C6942EA04128C6942EA9C
:1024A80004124260C5614A68C263036230BC704767
:1024B800002C014030B4036A026A22F4805202629E
:1024C8004468C26922F4E6420D6842EA052223F410
:1024D80000538D6843EA0533094DA84203D005F53A
:1024E8000065A84204D124F480444D6944EA851467
:1024F8004460C2614A680264036230BC704700BF2E
:10250800002C014010B4036A046A24F00104046238
:10251800846924F0F00C4CEA021223F00A030B43FE
:102528008261036210BC704710B4036A046A24F025
:1025380010040462846924F4704C4CEA023223F0DB
:10254800A00343EA01138261036210BC70478368E9
:1025580023F070030B4343F00703836070470000C8
:1025680090F83D30DBB2012B2AD1022380F83D30B0
:102578000368154A934218D002F50062934214D0BA
:10258800B3F1804F11D0A2F5983293420DD002F5E5
:102598008062934209D002F58062934205D01A689E
:1025A80042F001021A60002070479A6802F00702A0
:1025B800062A07D01A6842F001021A600020704704
:1025C8000120704700207047002C014090F83D30F2
:1025D800DBB2012B2FD1022380F83D300268D3688B
:1025E80043F00103D3600368154A934218D002F5FB
:1025F8000062934214D0B3F1804F11D0A2F5983203
:1026080093420DD002F58062934209D002F58062B0
:10261800934205D01A6842F001021A600020704700
:102628009A6802F00702062A07D01A6842F00102E7
:102638001A6000207047012070470020704700BFD3
:10264800002C01407047704770477047704710B5BD
:10265800044603681A6912F0020F11D0DA6812F002
:10266800020F0DD06FF002021A610123037703688D
:102678009B6913F0030F70D0FFF7E6FF0023237761
:1026880023681A6912F0040F12D0DA6812F0040FE6
:102698000ED06FF004021A610223237723689B6926
:1026A80013F4407F5FD02046FFF7CEFF0023237747
:1026B80023681A6912F0080F12D0DA6812F0080FAE
:1026C8000ED06FF008021A61042323772368DB69B0
:1026D80013F0030F4ED02046FFF7B6FF00232377F1
:1026E80023681A6912F0100F12D0DA6812F0100F6E
:1026F8000ED06FF010021A61082323772368DB6974
:1027080013F4407F3DD02046FFF79EFF0023237738
:1027180023681A6912F0010F03D0DA6812F0010F6A
:1027280036D123681A6912F0800F03D0DA6812F0E4
:10273800800F34D123681A6912F0400F03D0DA6889
:1027480012F0400F32D123681A6912F0200F03D01B
:10275800DA6812F0200F30D110BDFFF774FF204661
:10276800FFF773FF8AE72046FFF76DFF2046FFF764
:102778006CFF9BE72046FFF766FF2046FFF765FFE3
:10278800ACE72046FFF75FFF2046FFF75EFFBDE797
:102798006FF001021A612046FEF71AFDC1E76FF0DB
:1027A80080021A61204600F06EFBC3E76FF040021A
:1027B8001A612046FFF74AFFC5E76FF020021A6149
:1027C800204600F05FFBC7E70368244A904212D016
:1027D80002F5006290420ED0B0F1804F0BD0A2F506
:1027E8009832904207D002F58062904203D002F5F9
:1027F8008062904203D123F070034A681343174A5A
:10280800904212D002F5006290420ED0B0F1804F93
:102818000BD0A2F59832904207D002F58062904220
:1028280003D002F58062904203D123F44073CA6852
:10283800134323F080034A69134303608B68C36220
:102848000B688362054B984203D003F500639842F6
:1028580001D10B690363012343617047002C0140D8
:1028680040B310B5044690F83D30F3B1022384F824
:102878003D30214651F8040BFFF7A6FF012384F8E9
:10288800463084F83E3084F83F3084F8403084F88D
:10289800413084F8423084F8433084F8443084F876
:1028A800453084F83D30002010BD80F83C30FEF7FC
:1028B800D5FEDBE70120704740B310B5044690F819
:1028C8003D30F3B1022384F83D30214651F8040B22
:1028D800FFF77AFF012384F8463084F83E3084F805
:1028E8003F3084F8403084F8413084F8423084F82E
:1028F800433084F8443084F8453084F83D30002073
:1029080010BD80F83C30FFF79DFEDBE701207047E3
:10291800002857D070B50D46044690F83D30002B7E
:102928004BD0022384F83D302268936823F4804317
:1029380023F007039360214651F8040BFFF744FF87
:1029480021688A688B690E6A2868104323F4407CE2
:102958002CF0030CAA68AB6942EA032343EA0C0390
:1029680023F47C4323F0FC03EA69D5F80CC04CEA55
:10297800022C4CEA030C2A6A13032A6943EA02135D
:1029880043EA0C0326F022066A686D6942EA0512DA
:102998003243886021688B6123681A62012384F8B6
:1029A800463084F83E3084F83F3084F8423084F86A
:1029B800433084F83D30002070BD80F83C30FEF78D
:1029C800EFFDAEE70120704730B4036A026A22F0D7
:1029D800100202624468826922F4E6420D6842EA03
:1029E800052223F020038D6843EA0513114DA84200
:1029F80003D005F50065A84206D123F08003CD6811
:102A080043EA051323F040030A4DA84203D005F515
:102A18000065A84207D124F440644D6944EA85045E
:102A28008D6944EA8504446082614A68826303626E
:102A380030BC7047002C014038B590F83C30012B71
:102A480066D004460D46012380F83C300C2A5AD83B
:102A5800DFE802F0075959591B5959593059595942
:102A680044000068FFF7BAFC2268936943F0080342
:102A780093612268936923F0040393612268936940
:102A880029690B43936100203EE00068FFF79CFF33
:102A98002268936943F4006393612268936923F47D
:102AA8008063936122689369296943EA01239361EA
:102AB800002029E00068FFF7C5FC2268D36943F0CD
:102AC8000803D3612268D36923F00403D361226821
:102AD800D36929690B43D361002015E00068FFF72B
:102AE800E9FC2268D36943F40063D3612268D3699F
:102AF80023F48063D3612268D369296943EA0123F7
:102B0800D361002000E00120002384F83C3038BD68
:102B18000220FCE710B4846824F47F4C42EA0322C4
:102B28000A4342EA0C02826010BC704790F83C30BD
:102B3800012B78D010B50446012380F83C300223DD
:102B480080F83D300268936823F47F4323F07703CD
:102B580093600B68602B4CD029D8402B54D00CD9EB
:102B6800502B22D1CA6849680068FFF7CBFC502176
:102B78002068FFF7ECFC002005E0202B0DD009D9D8
:102B8800302B0AD00120012384F83D30002384F83B
:102B98003C3010BD0BB1102B05D119462068FFF74A
:102BA800D6FC0020EFE70120EDE70120EBE7B3F5C5
:102BB800805F34D0B3F5005F0CD1CB684A68896870
:102BC8000068FFF7A7FF2268936843F48043936087
:102BD8000020D8E7702B24D1CB684A688968006840
:102BE800FFF798FF2268936843F07703936000200B
:102BF800C9E7CA6849680068FFF796FC6021206841
:102C0800FFF7A5FC0020BEE7CA6849680068FFF71F
:102C180079FC40212068FFF79AFC0020B3E70020E8
:102C2800B1E70120AFE70220704701F01F0101233F
:102C380003FA01FC036A23EA0C030362036A02FA3B
:102C480001F10B430362704710B50446084600299A
:102C58003AD194F83E30DBB2013B18BF0123002B78
:102C680066D1002849D1022384F83E30012201466A
:102C78002068FFF7DAFF23682F4A934203D002F552
:102C88000062934203D15A6C42F400425A642368AA
:102C9800294A934241D002F5006293423DD0B3F1F4
:102CA800804F3AD0A2F59832934236D002F580622E
:102CB800934232D002F5806293422ED01A6842F0D5
:102CC80001021A60002032E0042908D008290DD03A
:102CD80094F84130DBB2013B18BF0123BFE794F8F9
:102CE8003F30DBB2013B18BF0123B8E794F840300E
:102CF800DBB2013B18BF0123B1E7042805D008283F
:102D080007D0022384F84130B0E7022384F83F302B
:102D1800ACE7022384F84030A8E79A6802F007027B
:102D2800062A07D01A6842F001021A60002010BD76
:102D38000120FCE70020FAE7002C014038B50446E2
:102D480090F83E00C0B294F83F3094F84220D2B2D6
:102D580094F843C00D46B1B9012849D1012A48D198
:102D6800022384F83E3084F842307DB3042D39D0F4
:102D7800012200212068FFF758FF01220421206862
:102D8800FFF753FF27E0DBB25FFA8CFC042912D06F
:102D9800012833D1012B2CD1012A31D1BCF1010FEB
:102DA80030D1022384F83E3084F83F3084F8423032
:102DB80084F84330D9E7012B1CD1BCF1010F1BD19A
:102DC800022384F83F3084F84330CEE70122002103
:102DD8002068FFF72AFF2268136843F00103136095
:102DE800002006E0012204212068FFF71EFFF2E719
:102DF800012038BD0120FCE71846FAE70120F8E772
:102E08001846F6E71046F4E790F83C30012B34D02A
:102E180010B4012380F83C30022380F83D30036869
:102E28005A689C6822F0700C0A6842EA0C025A60E0
:102E38000368134A934212D002F5006293420ED0FF
:102E4800B3F1804F0BD0A2F59832934207D002F528
:102E58008062934203D002F58062934204D124F049
:102E680080044A6814439C60012380F83D300023A5
:102E780080F83C30184610BC70470220704700BFED
:102E8800002C01407047704738B504460D460020B5
:102E980000F0E6F8002000F011F92946204600F07D
:102EA80041F938BD38B50A4D3C212846FFF746FFA1
:102EB800084C3C212046FFF741FF0748FFF786FBF7
:102EC8002846FFF783FB2046FFF780FB38BD00BF8D
:102ED80018050020A8050020F00500204FF08043C9
:102EE800586A00225A6200B270470000024B586AC2
:102EF80000225A6200B2704700080040000000003B
:102F080008B5FDF7DFFA0EA3D3E90023FDF76EFC41
:102F180000220F4BFDF76AFC02460B46FDF786F9C7
:102F280000220C4BFDF738FB07A3D3E90023FDF77C
:102F380033FBFDF743FDFDF773FE08BDAFF30080DB
:102F48007B14AE47E17A843F4AD8124DFB210940F1
:102F58000040A34000000A404FF080435B6A1BB268
:102F680018447047024B5B6A1BB21844704700BF95
:102F7800000800400000000008B5FDF751FE0C49AC
:102F8800FDF756FF0146FDF797FDFDF7ADFA002264
:102F9800084BFDF701FB04A3D3E90023FDF7FCFA76
:102FA800FDF734FD08BD00BF4AD8124DFB2109408A
:102FB80000001A4500000A40016042608360009BDF
:102FC8008361019B036270472DE9F041044608467E
:102FD800E66826611146FDF76DFD0546E06031465D
:102FE800FDF768FDA168FDF76FFE074621682846D2
:102FF800FDF76AFE804661682846FDF765FE61694F
:10300800FDF75AFD05466061A6693146FEF718F8D6
:1030180088B1666141463846FDF74EFD6169FDF7A6
:103028004BFD0546E061266A3146FEF709F860B1B6
:10303800E661BDE8F08106F1004631462846FDF715
:10304800E1FF0028E6D06661E4E706F10046314674
:103058002846FDF7D7FF0028EBD0E661E9E7000036
:1030680010B520B101280ED0022818D010BD124C7E
:10307800012240212046FEF7B9FD0022802120468A
:10308800FEF7B4FDF2E70C4C002240212046FEF783
:10309800ADFD012280212046FEF7A8FDE6E7064C9B
:1030A800002240212046FEF7A1FD00228021204673
:1030B800FEF79CFDDAE700BF0010014010B520B113
:1030C800012810D002281CD010BD154C01224FF445
:1030D80080712046FEF78AFD00224FF400712046D9
:1030E800FEF784FDF0E70E4C00224FF48071204675
:1030F800FEF77CFD01224FF400712046FEF776FDB5
:10310800E2E7074C00224FF480712046FEF76EFD7F
:1031180000224FF400712046FEF768FDD4E700BF97
:10312800001001400028B8BF40420029B8BF4942FA
:1031380041F61F439842A8BF18469942A8BF1946AE
:10314800024B1B6858639963704700BF60050020F5
:1031580070B50D4E0D4D761BB61006D0002455F8EF
:10316800043B01349847A642F9D1094E094D00F0B5
:10317800D5F8761BB61006D0002455F8043B013468
:103188009847A642F9D170BD6C3300086C3300082B
:10319800743300086C330008830730B548D0541ED8
:1031A800002A3FD00346CAB201E0013C3AD303F8F3
:1031B800012B9D07F9D1032C2DD9CDB245EA052560
:1031C8000F2C45EA054536D9A4F1100222F00F0C60
:1031D80003F1200EE6444FEA121C03F1100242E903
:1031E800045542E9025510327245F8D10CF101023A
:1031F80014F00C0F03EB021204F00F0C13D0ACF117
:10320800040323F003030433134442F8045B93429A
:10321800FBD10CF003042CB1CAB21C4403F8012BF7
:103228009C42FBD130BD64461346002CF4D1F9E72B
:1032380003461446BFE71A46A446E0E7024B13B11B
:10324800024800F005B87047000000006532000829
:10325800002301461A46184600F01AB838B5084B3C
:10326800084D5B1B9C1007D0043B1D44013C55F8DE
:1032780004399847002CF9D1BDE8384000F054B81B
:103288007833000874330008704700BF704700BFE8
:103298002DE9F047DFF87CA00646DAF800009846EA
:1032A8000F469146FFF7F0FF1B4B1B68D3F84841C8
:1032B80024B365681F2D26DC5EB96B1C0235DAF86D
:1032C8000000636044F82570FFF7E0FF0020BDE8C8
:1032D800F087012304EB8501C1F88890D4F8882190
:1032E800AB401A43022EC4F88821C1F80881E4D102
:1032F800D4F88C211343C4F88C31DEE703F5A674A7
:10330800C3F84841D5E7DAF80000FFF7BFFF4FF0F0
:10331800FF30DCE73804002068330008F8B500BF48
:10332800F8BC08BC9E467047F8B500BFF8BC08BC9E
:043338009E467047F6
:10333C000000000000000000010203040607080959
:10334C00000000000102030402030405060708093B
:10335C000A0B0C0D0E0F10100102000010000020C3
:08336C00453200080D020008C3
:04337400E901000863
:10337800000070420024F40001000000100000006A
:1033880000000000FC02002064030020CC030020A1
:103398000000000000000000000000000000000025
:1033A8000000000000000000000000000000000015
:1033B8000000000000000000000000000000000005
:1033C80000000000000000000000000000000000F5
:1033D80000000000000000000000000000000000E5
:1033E80000000000000000000000000000000000D5
:1033F80000000000000000000000000000000000C5
:1034080000000000000000000000000000000000B4
:1034180000000000000000000000000000000000A4
:103428000000000000000000010000000000000093
:103438000E33CDAB34126DE6ECDE05000B00000058
:103448000000000000000000000000000000000074
:103458000000000000000000000000000000000064
:103468000000000000000000000000000000000054
:103478000000000000000000000000000000000044
:0C37A80000000000000000003C060020B3
:04000005080017D503
:00000001FF
